:100000000C947C000C9499000C9499000C94990029
:100010000C9499000C9499000C9499000C949900FC
:100020000C9499000C9499000C9499000C949900EC
:100030000C9499000C9499000C9499000C949900DC
:100040000C9499000C9499000C9499000C949900CC
:100050000C9499000C9499000C9499000C949900BC
:100060000C9499000C9499000C9499000C949900AC
:100070000C9499000C9499000C9499000C9499009C
:100080000C9499000C9499000C9499000C9499008C
:100090000C9499000C9499000C9499000C9499007C
:1000A0000C9499000C9499000C9499000C945001B4
:1000B0000C9499000C9499000C9499000C9499005C
:1000C0000C9499000C9499000C9499000C9499004C
:1000D0000C9499000C9499000C9499000C9499003C
:1000E0000C949900F9000D01FB00FD00FF000101D7
:1000F000030105010701090111241FBECFEFD1E261
:10010000DEBFCDBF12E0A0E0B2E0E8EEF3E002C057
:1001100005900D92A030B107D9F722E0A0E0B2E03F
:1001200001C01D92A830B207E1F70E94A5010C940E
:10013000F2010C9400001AB808950F931F93CF9307
:10014000DF930097D9F161157105C1F1EB018C01C5
:100150004F9907C08881811104C0F801099581E099
:1001600088834E9907C08981811104C0F8010995DF
:1001700081E089834D9907C08A81811104C0F8010B
:10018000099581E08A834C9907C08B81811104C055
:10019000F801099581E08B834B9907C08C8181110F
:1001A00004C0F801099581E08C834A9907C08D81CC
:1001B000811104C0F801099581E08D83DF91CF9111
:1001C0001F910F9108959C01892B39F40895F9012D
:1001D000E90FF11D10829F5F01C090E09630B8F3E7
:1001E00008958A309105B8F4FC01EE58FF4F0C9445
:1001F000D8018FE308958BE508958FE4089586E68E
:1002000008958DE608958DE7089587E008958FE7B6
:1002100008958FE6089581E0089586E008950F938C
:100220001F93CF93DF936AE070E00E94C4018B01BB
:100230000E94F100C6E0D2E08883C8010E94F1006C
:100240008983DF91CF911F910F91089580910002D2
:10025000811107C08091060285B981E08093000278
:10026000089580910702806885B910920002089570
:10027000F8941092A0008CE08093A10084E0809319
:10028000720015B88FEF84B988E391E09093A900CC
:100290008093A8007894089581E0809303020895E4
:1002A0001F920F920FB60F9211242F933F934F93EB
:1002B0005F936F937F938F939F93AF93BF93EF93CE
:1002C000FF9380910302813041F020F0823001F5EC
:1002D00015B81EC00E9426011BC08091010290919A
:1002E0000202019690930202809301028A359105E1
:1002F00014F015B802C00E9426018091010290916D
:1003000002028436910521F4109202021092010239
:10031000FF91EF91BF91AF919F918F917F916F91DD
:100320005F914F913F912F910F900FBE0F901F90B3
:10033000189580910402909105020596909305020C
:10034000809304020E940F010895CF93DF9300D0A1
:1003500000D000D0CDB7DEB7CE0101960E94E300F9
:100360000E949B000E943801809104029091050236
:100370000E940F010E944C01BE016F5F7F4F89E90F
:1003800091E00E949D00F8CF97FB072E16F4009491
:1003900007D077FD09D00E94DE0107FC05D03EF4AE
:1003A000909581959F4F0895709561957F4F089521
:1003B000EE0FFF1F0590F491E02D0994AA1BBB1BC3
:1003C00051E107C0AA1FBB1FA617B70710F0A61B55
:1003D000B70B881F991F5A95A9F780959095BC0176
:0803E000CD010895F894FFCF50
:00000001FF
